{
  "contractName": "Token",
  "abi": [
    {
      "inputs": [
        {
          "internalType": "uint256",
          "name": "initalSupply",
          "type": "uint256"
        }
      ],
      "stateMutability": "nonpayable",
      "type": "constructor"
    },
    {
      "anonymous": false,
      "inputs": [
        {
          "indexed": true,
          "internalType": "address",
          "name": "owner",
          "type": "address"
        },
        {
          "indexed": true,
          "internalType": "address",
          "name": "_spender",
          "type": "address"
        },
        {
          "indexed": true,
          "internalType": "uint256",
          "name": "_value",
          "type": "uint256"
        }
      ],
      "name": "Approval",
      "type": "event"
    },
    {
      "anonymous": false,
      "inputs": [
        {
          "indexed": true,
          "internalType": "address",
          "name": "from",
          "type": "address"
        },
        {
          "indexed": true,
          "internalType": "address",
          "name": "to",
          "type": "address"
        },
        {
          "indexed": true,
          "internalType": "uint256",
          "name": "amount",
          "type": "uint256"
        }
      ],
      "name": "Transfer",
      "type": "event"
    },
    {
      "inputs": [
        {
          "internalType": "address",
          "name": "",
          "type": "address"
        },
        {
          "internalType": "address",
          "name": "",
          "type": "address"
        }
      ],
      "name": "allowance",
      "outputs": [
        {
          "internalType": "uint256",
          "name": "",
          "type": "uint256"
        }
      ],
      "stateMutability": "view",
      "type": "function"
    },
    {
      "inputs": [
        {
          "internalType": "address",
          "name": "",
          "type": "address"
        }
      ],
      "name": "balances",
      "outputs": [
        {
          "internalType": "uint256",
          "name": "",
          "type": "uint256"
        }
      ],
      "stateMutability": "view",
      "type": "function"
    },
    {
      "inputs": [],
      "name": "name",
      "outputs": [
        {
          "internalType": "string",
          "name": "",
          "type": "string"
        }
      ],
      "stateMutability": "view",
      "type": "function"
    },
    {
      "inputs": [],
      "name": "symbol",
      "outputs": [
        {
          "internalType": "string",
          "name": "",
          "type": "string"
        }
      ],
      "stateMutability": "view",
      "type": "function"
    },
    {
      "inputs": [],
      "name": "totalSupply",
      "outputs": [
        {
          "internalType": "uint256",
          "name": "",
          "type": "uint256"
        }
      ],
      "stateMutability": "view",
      "type": "function"
    },
    {
      "inputs": [
        {
          "internalType": "address",
          "name": "to",
          "type": "address"
        },
        {
          "internalType": "uint256",
          "name": "amount",
          "type": "uint256"
        }
      ],
      "name": "transfer",
      "outputs": [
        {
          "internalType": "bool",
          "name": "success",
          "type": "bool"
        }
      ],
      "stateMutability": "nonpayable",
      "type": "function"
    },
    {
      "inputs": [
        {
          "internalType": "address",
          "name": "_spender",
          "type": "address"
        },
        {
          "internalType": "uint256",
          "name": "_value",
          "type": "uint256"
        }
      ],
      "name": "approve",
      "outputs": [
        {
          "internalType": "bool",
          "name": "success",
          "type": "bool"
        }
      ],
      "stateMutability": "nonpayable",
      "type": "function"
    }
  ],
  "bytecode": "0x60806040523480156200001157600080fd5b5060405162000f9f38038062000f9f8339818101604052810190620000379190620001ec565b6040518060400160405280600c81526020017f44696775277320546f6b656e0000000000000000000000000000000000000000815250600390805190602001906200008492919062000125565b506040518060400160405280600481526020017f446967750000000000000000000000000000000000000000000000000000000081525060049080519060200190620000d292919062000125565b508060008190555080600160003373ffffffffffffffffffffffffffffffffffffffff1673ffffffffffffffffffffffffffffffffffffffff1681526020019081526020016000208190555050620002a1565b828054620001339062000222565b90600052602060002090601f016020900481019282620001575760008555620001a3565b82601f106200017257805160ff1916838001178555620001a3565b82800160010185558215620001a3579182015b82811115620001a257825182559160200191906001019062000185565b5b509050620001b29190620001b6565b5090565b5b80821115620001d1576000816000905550600101620001b7565b5090565b600081519050620001e68162000287565b92915050565b600060208284031215620001ff57600080fd5b60006200020f84828501620001d5565b91505092915050565b6000819050919050565b600060028204905060018216806200023b57607f821691505b6020821081141562000252576200025162000258565b5b50919050565b7f4e487b7100000000000000000000000000000000000000000000000000000000600052602260045260246000fd5b620002928162000218565b81146200029e57600080fd5b50565b610cee80620002b16000396000f3fe608060405234801561001057600080fd5b506004361061007d5760003560e01c806327e235e31161005b57806327e235e3146100ee57806395d89b411461011e578063a9059cbb1461013c578063dd62ed3e1461016c5761007d565b806306fdde0314610082578063095ea7b3146100a057806318160ddd146100d0575b600080fd5b61008a61019c565b60405161009791906109eb565b60405180910390f35b6100ba60048036038101906100b591906107fd565b61022a565b6040516100c791906109d0565b60405180910390f35b6100d86103f1565b6040516100e59190610aad565b60405180910390f35b61010860048036038101906101039190610798565b6103f7565b6040516101159190610aad565b60405180910390f35b61012661040f565b60405161013391906109eb565b60405180910390f35b610156600480360381019061015191906107fd565b61049d565b60405161016391906109d0565b60405180910390f35b610186600480360381019061018191906107c1565b610749565b6040516101939190610aad565b60405180910390f35b600380546101a990610be9565b80601f01602080910402602001604051908101604052809291908181526020018280546101d590610be9565b80156102225780601f106101f757610100808354040283529160200191610222565b820191906000526020600020905b81548152906001019060200180831161020557829003601f168201915b505050505081565b60008073ffffffffffffffffffffffffffffffffffffffff163373ffffffffffffffffffffffffffffffffffffffff16141561029b576040517f08c379a000000000000000000000000000000000000000000000000000000000815260040161029290610a2d565b60405180910390fd5b600073ffffffffffffffffffffffffffffffffffffffff168373ffffffffffffffffffffffffffffffffffffffff16141561030b576040517f08c379a000000000000000000000000000000000000000000000000000000000815260040161030290610a8d565b60405180910390fd5b81600260003373ffffffffffffffffffffffffffffffffffffffff1673ffffffffffffffffffffffffffffffffffffffff16815260200190815260200160002060008573ffffffffffffffffffffffffffffffffffffffff1673ffffffffffffffffffffffffffffffffffffffff16815260200190815260200160002081905550818373ffffffffffffffffffffffffffffffffffffffff163373ffffffffffffffffffffffffffffffffffffffff167f8c5be1e5ebec7d5bd14f71427d1e84f3dd0314c0f7b2291e5b200ac8c7c3b92560405160405180910390a46001905092915050565b60005481565b60016020528060005260406000206000915090505481565b6004805461041c90610be9565b80601f016020809104026020016040519081016040528092919081815260200182805461044890610be9565b80156104955780601f1061046a57610100808354040283529160200191610495565b820191906000526020600020905b81548152906001019060200180831161047857829003601f168201915b505050505081565b60008073ffffffffffffffffffffffffffffffffffffffff163373ffffffffffffffffffffffffffffffffffffffff16141561050e576040517f08c379a000000000000000000000000000000000000000000000000000000000815260040161050590610a6d565b60405180910390fd5b600073ffffffffffffffffffffffffffffffffffffffff168373ffffffffffffffffffffffffffffffffffffffff16141561057e576040517f08c379a000000000000000000000000000000000000000000000000000000000815260040161057590610a0d565b60405180910390fd5b81600160003373ffffffffffffffffffffffffffffffffffffffff1673ffffffffffffffffffffffffffffffffffffffff168152602001908152602001600020541015610600576040517f08c379a00000000000000000000000000000000000000000000000000000000081526004016105f790610a4d565b60405180910390fd5b81600160003373ffffffffffffffffffffffffffffffffffffffff1673ffffffffffffffffffffffffffffffffffffffff1681526020019081526020016000205461064b9190610b3a565b600160003373ffffffffffffffffffffffffffffffffffffffff1673ffffffffffffffffffffffffffffffffffffffff1681526020019081526020016000208190555081600160008573ffffffffffffffffffffffffffffffffffffffff1673ffffffffffffffffffffffffffffffffffffffff16815260200190815260200160002060008282546106dd9190610ae4565b92505081905550818373ffffffffffffffffffffffffffffffffffffffff163373ffffffffffffffffffffffffffffffffffffffff167fddf252ad1be2c89b69c2b068fc378daa952ba7f163c4a11628f55a4df523b3ef60405160405180910390a46001905092915050565b6002602052816000526040600020602052806000526040600020600091509150505481565b60008135905061077d81610c8a565b92915050565b60008135905061079281610ca1565b92915050565b6000602082840312156107aa57600080fd5b60006107b88482850161076e565b91505092915050565b600080604083850312156107d457600080fd5b60006107e28582860161076e565b92505060206107f38582860161076e565b9150509250929050565b6000806040838503121561081057600080fd5b600061081e8582860161076e565b925050602061082f85828601610783565b9150509250929050565b61084281610b80565b82525050565b600061085382610ac8565b61085d8185610ad3565b935061086d818560208601610bb6565b61087681610c79565b840191505092915050565b600061088e601b83610ad3565b91507f5472616e736665726420746f2061207a65726f206163636f756e7400000000006000830152602082019050919050565b60006108ce601c83610ad3565b91507f417070726f7665642066726f6d2061207a65726f206163636f756e74000000006000830152602082019050919050565b600061090e601d83610ad3565b91507f416d6f756e7420657863656564732062616c616e636520616d6f756e740000006000830152602082019050919050565b600061094e601683610ad3565b91507f53656e742066726f6d207a65726f206163636f756e74000000000000000000006000830152602082019050919050565b600061098e601983610ad3565b91507f7370656e742066726f6d2061207a65726f2061646472657373000000000000006000830152602082019050919050565b6109ca81610bac565b82525050565b60006020820190506109e56000830184610839565b92915050565b60006020820190508181036000830152610a058184610848565b905092915050565b60006020820190508181036000830152610a2681610881565b9050919050565b60006020820190508181036000830152610a46816108c1565b9050919050565b60006020820190508181036000830152610a6681610901565b9050919050565b60006020820190508181036000830152610a8681610941565b9050919050565b60006020820190508181036000830152610aa681610981565b9050919050565b6000602082019050610ac260008301846109c1565b92915050565b600081519050919050565b600082825260208201905092915050565b6000610aef82610bac565b9150610afa83610bac565b9250827fffffffffffffffffffffffffffffffffffffffffffffffffffffffffffffffff03821115610b2f57610b2e610c1b565b5b828201905092915050565b6000610b4582610bac565b9150610b5083610bac565b925082821015610b6357610b62610c1b565b5b828203905092915050565b6000610b7982610b8c565b9050919050565b60008115159050919050565b600073ffffffffffffffffffffffffffffffffffffffff82169050919050565b6000819050919050565b60005b83811015610bd4578082015181840152602081019050610bb9565b83811115610be3576000848401525b50505050565b60006002820490506001821680610c0157607f821691505b60208210811415610c1557610c14610c4a565b5b50919050565b7f4e487b7100000000000000000000000000000000000000000000000000000000600052601160045260246000fd5b7f4e487b7100000000000000000000000000000000000000000000000000000000600052602260045260246000fd5b6000601f19601f8301169050919050565b610c9381610b6e565b8114610c9e57600080fd5b50565b610caa81610bac565b8114610cb557600080fd5b5056fea2646970667358221220446ffe830ab4326c6378fc334e242b982783b25dc4951d0feade8b8aa58b29d564736f6c63430008000033",
  "immutableReferences": {},
  "source": "pragma solidity >=0.4.22 <0.9.0;\n\ncontract Token{\n  uint256 public totalSupply;\n  mapping(address => uint256) public balances;\n  mapping(address => mapping(address => uint256)) public allowance;\n  string public name;\n  string public symbol;\n\n  event Transfer(\n\t  address  indexed from,\n\t  address indexed  to,\n\t  uint256 indexed amount\n  );\n\n  event Approval(\n\t  address indexed owner,\n\t  address indexed _spender,\n\t  uint256 indexed _value\n  );\n \n  constructor(uint256 initalSupply) public{\n\t  name = \"Digu's Token\";\n\t  symbol = \"Digu\";\n\t  totalSupply = initalSupply;\n\t  balances[msg.sender] = initalSupply;\n  }\n\n  function transfer(address to,uint256 amount) public returns (bool success){\n\t\trequire(msg.sender != address(0),\"Sent from zero account\");\n\t\trequire(to != address(0),\"Transferd to a zero account\");\n\t\trequire(balances[msg.sender] >= amount,\"Amount exceeds balance amount\");\n\t\tbalances[msg.sender] = balances[msg.sender]-amount;\n\t\tbalances[to] += amount;\n\t   emit Transfer(msg.sender,to,amount);\t\n\t  return true;\n  }\n\n  function approve(address _spender,uint256 _value) public returns(bool success) {\n\t\trequire(msg.sender != address(0),\"Approved from a zero account\");\n\t\trequire(_spender != address(0),\"spent from a zero address\");\n\t\tallowance[msg.sender][_spender] = _value;\n\t\temit Approval(msg.sender,_spender,_value);\n\t\treturn true;\n  } \n\n}\n",
  "sourcePath": "/home/diganta/projects/My-Token/contracts/Token.sol",
  "compiler": {
    "name": "solc",
    "version": "0.8.0+commit.c7dfd78e.Emscripten.clang"
  },
  "schemaVersion": "3.4.3",
  "updatedAt": "2021-11-11T15:46:34.152Z",
  "devdoc": {
    "kind": "dev",
    "methods": {},
    "version": 1
  },
  "userdoc": {
    "kind": "user",
    "methods": {},
    "version": 1
  }
}