{
  "contractName": "Token",
  "abi": [
    {
      "inputs": [
        {
          "internalType": "uint256",
          "name": "initalSupply",
          "type": "uint256"
        }
      ],
      "stateMutability": "nonpayable",
      "type": "constructor"
    },
    {
      "anonymous": false,
      "inputs": [
        {
          "indexed": true,
          "internalType": "address",
          "name": "owner",
          "type": "address"
        },
        {
          "indexed": true,
          "internalType": "address",
          "name": "_spender",
          "type": "address"
        },
        {
          "indexed": true,
          "internalType": "uint256",
          "name": "_value",
          "type": "uint256"
        }
      ],
      "name": "Approval",
      "type": "event"
    },
    {
      "anonymous": false,
      "inputs": [
        {
          "indexed": true,
          "internalType": "address",
          "name": "from",
          "type": "address"
        },
        {
          "indexed": true,
          "internalType": "address",
          "name": "to",
          "type": "address"
        },
        {
          "indexed": true,
          "internalType": "uint256",
          "name": "amount",
          "type": "uint256"
        }
      ],
      "name": "Transfer",
      "type": "event"
    },
    {
      "inputs": [
        {
          "internalType": "address",
          "name": "",
          "type": "address"
        },
        {
          "internalType": "address",
          "name": "",
          "type": "address"
        }
      ],
      "name": "allowance",
      "outputs": [
        {
          "internalType": "uint256",
          "name": "",
          "type": "uint256"
        }
      ],
      "stateMutability": "view",
      "type": "function"
    },
    {
      "inputs": [
        {
          "internalType": "address",
          "name": "",
          "type": "address"
        }
      ],
      "name": "balances",
      "outputs": [
        {
          "internalType": "uint256",
          "name": "",
          "type": "uint256"
        }
      ],
      "stateMutability": "view",
      "type": "function"
    },
    {
      "inputs": [],
      "name": "name",
      "outputs": [
        {
          "internalType": "string",
          "name": "",
          "type": "string"
        }
      ],
      "stateMutability": "view",
      "type": "function"
    },
    {
      "inputs": [],
      "name": "symbol",
      "outputs": [
        {
          "internalType": "string",
          "name": "",
          "type": "string"
        }
      ],
      "stateMutability": "view",
      "type": "function"
    },
    {
      "inputs": [],
      "name": "totalSupply",
      "outputs": [
        {
          "internalType": "uint256",
          "name": "",
          "type": "uint256"
        }
      ],
      "stateMutability": "view",
      "type": "function"
    },
    {
      "inputs": [
        {
          "internalType": "address",
          "name": "to",
          "type": "address"
        },
        {
          "internalType": "uint256",
          "name": "amount",
          "type": "uint256"
        }
      ],
      "name": "transfer",
      "outputs": [
        {
          "internalType": "bool",
          "name": "success",
          "type": "bool"
        }
      ],
      "stateMutability": "nonpayable",
      "type": "function"
    },
    {
      "inputs": [
        {
          "internalType": "address",
          "name": "_spender",
          "type": "address"
        },
        {
          "internalType": "uint256",
          "name": "_value",
          "type": "uint256"
        }
      ],
      "name": "approve",
      "outputs": [
        {
          "internalType": "bool",
          "name": "success",
          "type": "bool"
        }
      ],
      "stateMutability": "nonpayable",
      "type": "function"
    },
    {
      "inputs": [
        {
          "internalType": "address",
          "name": "_spender",
          "type": "address"
        },
        {
          "internalType": "address",
          "name": "_to",
          "type": "address"
        },
        {
          "internalType": "uint256",
          "name": "_value",
          "type": "uint256"
        }
      ],
      "name": "transferFrom",
      "outputs": [
        {
          "internalType": "bool",
          "name": "success",
          "type": "bool"
        }
      ],
      "stateMutability": "nonpayable",
      "type": "function"
    }
  ],
  "bytecode": "0x60806040523480156200001157600080fd5b506040516200138a3803806200138a8339818101604052810190620000379190620001ec565b6040518060400160405280600c81526020017f44696775277320546f6b656e0000000000000000000000000000000000000000815250600390805190602001906200008492919062000125565b506040518060400160405280600481526020017f446967750000000000000000000000000000000000000000000000000000000081525060049080519060200190620000d292919062000125565b508060008190555080600160003373ffffffffffffffffffffffffffffffffffffffff1673ffffffffffffffffffffffffffffffffffffffff1681526020019081526020016000208190555050620002a1565b828054620001339062000222565b90600052602060002090601f016020900481019282620001575760008555620001a3565b82601f106200017257805160ff1916838001178555620001a3565b82800160010185558215620001a3579182015b82811115620001a257825182559160200191906001019062000185565b5b509050620001b29190620001b6565b5090565b5b80821115620001d1576000816000905550600101620001b7565b5090565b600081519050620001e68162000287565b92915050565b600060208284031215620001ff57600080fd5b60006200020f84828501620001d5565b91505092915050565b6000819050919050565b600060028204905060018216806200023b57607f821691505b6020821081141562000252576200025162000258565b5b50919050565b7f4e487b7100000000000000000000000000000000000000000000000000000000600052602260045260246000fd5b620002928162000218565b81146200029e57600080fd5b50565b6110d980620002b16000396000f3fe608060405234801561001057600080fd5b50600436106100885760003560e01c806327e235e31161005b57806327e235e31461012957806395d89b4114610159578063a9059cbb14610177578063dd62ed3e146101a757610088565b806306fdde031461008d578063095ea7b3146100ab57806318160ddd146100db57806323b872dd146100f9575b600080fd5b6100956101d7565b6040516100a29190610dd6565b60405180910390f35b6100c560048036038101906100c09190610be8565b610265565b6040516100d29190610dbb565b60405180910390f35b6100e361042c565b6040516100f09190610e98565b60405180910390f35b610113600480360381019061010e9190610b99565b610432565b6040516101209190610dbb565b60405180910390f35b610143600480360381019061013e9190610b34565b610793565b6040516101509190610e98565b60405180910390f35b6101616107ab565b60405161016e9190610dd6565b60405180910390f35b610191600480360381019061018c9190610be8565b610839565b60405161019e9190610dbb565b60405180910390f35b6101c160048036038101906101bc9190610b5d565b610ae5565b6040516101ce9190610e98565b60405180910390f35b600380546101e490610fd4565b80601f016020809104026020016040519081016040528092919081815260200182805461021090610fd4565b801561025d5780601f106102325761010080835404028352916020019161025d565b820191906000526020600020905b81548152906001019060200180831161024057829003601f168201915b505050505081565b60008073ffffffffffffffffffffffffffffffffffffffff163373ffffffffffffffffffffffffffffffffffffffff1614156102d6576040517f08c379a00000000000000000000000000000000000000000000000000000000081526004016102cd90610e18565b60405180910390fd5b600073ffffffffffffffffffffffffffffffffffffffff168373ffffffffffffffffffffffffffffffffffffffff161415610346576040517f08c379a000000000000000000000000000000000000000000000000000000000815260040161033d90610e78565b60405180910390fd5b81600260003373ffffffffffffffffffffffffffffffffffffffff1673ffffffffffffffffffffffffffffffffffffffff16815260200190815260200160002060008573ffffffffffffffffffffffffffffffffffffffff1673ffffffffffffffffffffffffffffffffffffffff16815260200190815260200160002081905550818373ffffffffffffffffffffffffffffffffffffffff163373ffffffffffffffffffffffffffffffffffffffff167f8c5be1e5ebec7d5bd14f71427d1e84f3dd0314c0f7b2291e5b200ac8c7c3b92560405160405180910390a46001905092915050565b60005481565b6000600160008573ffffffffffffffffffffffffffffffffffffffff1673ffffffffffffffffffffffffffffffffffffffff1681526020019081526020016000205482111561048057600080fd5b600260003373ffffffffffffffffffffffffffffffffffffffff1673ffffffffffffffffffffffffffffffffffffffff16815260200190815260200160002060008573ffffffffffffffffffffffffffffffffffffffff1673ffffffffffffffffffffffffffffffffffffffff1681526020019081526020016000205482111561050957600080fd5b81600160008673ffffffffffffffffffffffffffffffffffffffff1673ffffffffffffffffffffffffffffffffffffffff168152602001908152602001600020546105549190610f25565b600160008673ffffffffffffffffffffffffffffffffffffffff1673ffffffffffffffffffffffffffffffffffffffff1681526020019081526020016000208190555081600160008573ffffffffffffffffffffffffffffffffffffffff1673ffffffffffffffffffffffffffffffffffffffff168152602001908152602001600020546105e29190610ecf565b600160008573ffffffffffffffffffffffffffffffffffffffff1673ffffffffffffffffffffffffffffffffffffffff1681526020019081526020016000208190555081600260003373ffffffffffffffffffffffffffffffffffffffff1673ffffffffffffffffffffffffffffffffffffffff16815260200190815260200160002060008673ffffffffffffffffffffffffffffffffffffffff1673ffffffffffffffffffffffffffffffffffffffff168152602001908152602001600020546106ad9190610f25565b600260003373ffffffffffffffffffffffffffffffffffffffff1673ffffffffffffffffffffffffffffffffffffffff16815260200190815260200160002060008673ffffffffffffffffffffffffffffffffffffffff1673ffffffffffffffffffffffffffffffffffffffff16815260200190815260200160002081905550818373ffffffffffffffffffffffffffffffffffffffff168573ffffffffffffffffffffffffffffffffffffffff167fddf252ad1be2c89b69c2b068fc378daa952ba7f163c4a11628f55a4df523b3ef60405160405180910390a4600190509392505050565b60016020528060005260406000206000915090505481565b600480546107b890610fd4565b80601f01602080910402602001604051908101604052809291908181526020018280546107e490610fd4565b80156108315780601f1061080657610100808354040283529160200191610831565b820191906000526020600020905b81548152906001019060200180831161081457829003601f168201915b505050505081565b60008073ffffffffffffffffffffffffffffffffffffffff163373ffffffffffffffffffffffffffffffffffffffff1614156108aa576040517f08c379a00000000000000000000000000000000000000000000000000000000081526004016108a190610e58565b60405180910390fd5b600073ffffffffffffffffffffffffffffffffffffffff168373ffffffffffffffffffffffffffffffffffffffff16141561091a576040517f08c379a000000000000000000000000000000000000000000000000000000000815260040161091190610df8565b60405180910390fd5b81600160003373ffffffffffffffffffffffffffffffffffffffff1673ffffffffffffffffffffffffffffffffffffffff16815260200190815260200160002054101561099c576040517f08c379a000000000000000000000000000000000000000000000000000000000815260040161099390610e38565b60405180910390fd5b81600160003373ffffffffffffffffffffffffffffffffffffffff1673ffffffffffffffffffffffffffffffffffffffff168152602001908152602001600020546109e79190610f25565b600160003373ffffffffffffffffffffffffffffffffffffffff1673ffffffffffffffffffffffffffffffffffffffff1681526020019081526020016000208190555081600160008573ffffffffffffffffffffffffffffffffffffffff1673ffffffffffffffffffffffffffffffffffffffff1681526020019081526020016000206000828254610a799190610ecf565b92505081905550818373ffffffffffffffffffffffffffffffffffffffff163373ffffffffffffffffffffffffffffffffffffffff167fddf252ad1be2c89b69c2b068fc378daa952ba7f163c4a11628f55a4df523b3ef60405160405180910390a46001905092915050565b6002602052816000526040600020602052806000526040600020600091509150505481565b600081359050610b1981611075565b92915050565b600081359050610b2e8161108c565b92915050565b600060208284031215610b4657600080fd5b6000610b5484828501610b0a565b91505092915050565b60008060408385031215610b7057600080fd5b6000610b7e85828601610b0a565b9250506020610b8f85828601610b0a565b9150509250929050565b600080600060608486031215610bae57600080fd5b6000610bbc86828701610b0a565b9350506020610bcd86828701610b0a565b9250506040610bde86828701610b1f565b9150509250925092565b60008060408385031215610bfb57600080fd5b6000610c0985828601610b0a565b9250506020610c1a85828601610b1f565b9150509250929050565b610c2d81610f6b565b82525050565b6000610c3e82610eb3565b610c488185610ebe565b9350610c58818560208601610fa1565b610c6181611064565b840191505092915050565b6000610c79601b83610ebe565b91507f5472616e736665726420746f2061207a65726f206163636f756e7400000000006000830152602082019050919050565b6000610cb9601c83610ebe565b91507f417070726f7665642066726f6d2061207a65726f206163636f756e74000000006000830152602082019050919050565b6000610cf9601d83610ebe565b91507f416d6f756e7420657863656564732062616c616e636520616d6f756e740000006000830152602082019050919050565b6000610d39601683610ebe565b91507f53656e742066726f6d207a65726f206163636f756e74000000000000000000006000830152602082019050919050565b6000610d79601983610ebe565b91507f7370656e742066726f6d2061207a65726f2061646472657373000000000000006000830152602082019050919050565b610db581610f97565b82525050565b6000602082019050610dd06000830184610c24565b92915050565b60006020820190508181036000830152610df08184610c33565b905092915050565b60006020820190508181036000830152610e1181610c6c565b9050919050565b60006020820190508181036000830152610e3181610cac565b9050919050565b60006020820190508181036000830152610e5181610cec565b9050919050565b60006020820190508181036000830152610e7181610d2c565b9050919050565b60006020820190508181036000830152610e9181610d6c565b9050919050565b6000602082019050610ead6000830184610dac565b92915050565b600081519050919050565b600082825260208201905092915050565b6000610eda82610f97565b9150610ee583610f97565b9250827fffffffffffffffffffffffffffffffffffffffffffffffffffffffffffffffff03821115610f1a57610f19611006565b5b828201905092915050565b6000610f3082610f97565b9150610f3b83610f97565b925082821015610f4e57610f4d611006565b5b828203905092915050565b6000610f6482610f77565b9050919050565b60008115159050919050565b600073ffffffffffffffffffffffffffffffffffffffff82169050919050565b6000819050919050565b60005b83811015610fbf578082015181840152602081019050610fa4565b83811115610fce576000848401525b50505050565b60006002820490506001821680610fec57607f821691505b6020821081141561100057610fff611035565b5b50919050565b7f4e487b7100000000000000000000000000000000000000000000000000000000600052601160045260246000fd5b7f4e487b7100000000000000000000000000000000000000000000000000000000600052602260045260246000fd5b6000601f19601f8301169050919050565b61107e81610f59565b811461108957600080fd5b50565b61109581610f97565b81146110a057600080fd5b5056fea26469706673582212204389d3f95c2c875c7436be5c9ffc286a86a2d123f4a9b48316375d76c578919564736f6c63430008000033",
  "immutableReferences": {},
  "source": "pragma solidity >=0.4.22 <0.9.0;\n\ncontract Token{\n  uint256 public totalSupply;\n  mapping(address => uint256) public balances;\n  mapping(address => mapping(address => uint256)) public allowance;\n  string public name;\n  string public symbol;\n\n  event Transfer(\n\t  address  indexed from,\n\t  address indexed  to,\n\t  uint256 indexed amount\n  );\n\n  event Approval(\n\t  address indexed owner,\n\t  address indexed _spender,\n\t  uint256 indexed _value\n  );\n \n  constructor(uint256 initalSupply) public{\n\t  name = \"Digu's Token\";\n\t  symbol = \"Digu\";\n\t  totalSupply = initalSupply;\n\t  balances[msg.sender] = initalSupply;\n  }\n\n  function transfer(address to,uint256 amount) public returns (bool success){\n\t\trequire(msg.sender != address(0),\"Sent from zero account\");\n\t\trequire(to != address(0),\"Transferd to a zero account\");\n\t\trequire(balances[msg.sender] >= amount,\"Amount exceeds balance amount\");\n\t\tbalances[msg.sender] = balances[msg.sender]-amount;\n\t\tbalances[to] += amount;\n\t   emit Transfer(msg.sender,to,amount);\t\n\t  return true;\n  }\n\n  function approve(address _spender,uint256 _value) public returns(bool success) {\n\t\trequire(msg.sender != address(0),\"Approved from a zero account\");\n\t\trequire(_spender != address(0),\"spent from a zero address\");\n\t\tallowance[msg.sender][_spender] = _value;\n\t\temit Approval(msg.sender,_spender,_value);\n\t\treturn true;\n  }\n\n\tfunction transferFrom(address _spender,address _to,uint256 _value) public returns(bool success) {\n\t\trequire(_value <= balances[_spender]);\n\t\trequire(_value <= allowance[msg.sender][_spender]);\n\t\tbalances[_spender] = balances[_spender]-_value;\n\t\tbalances[_to] = balances[_to]+_value;\n\t\tallowance[msg.sender][_spender] = allowance[msg.sender][_spender] - _value;\n\t\temit Transfer(_spender,_to,_value);\n\t\treturn true;\n\t}\n}\n",
  "sourcePath": "/home/diganta/projects/My-Token/contracts/Token.sol",
  "compiler": {
    "name": "solc",
    "version": "0.8.0+commit.c7dfd78e.Emscripten.clang"
  },
  "schemaVersion": "3.4.3",
  "updatedAt": "2021-11-18T18:16:59.257Z",
  "devdoc": {
    "kind": "dev",
    "methods": {},
    "version": 1
  },
  "userdoc": {
    "kind": "user",
    "methods": {},
    "version": 1
  }
}