{
  "contractName": "Token",
  "abi": [
    {
      "inputs": [
        {
          "internalType": "uint256",
          "name": "initalSupply",
          "type": "uint256"
        }
      ],
      "stateMutability": "nonpayable",
      "type": "constructor"
    },
    {
      "anonymous": false,
      "inputs": [
        {
          "indexed": true,
          "internalType": "address",
          "name": "_from",
          "type": "address"
        },
        {
          "indexed": true,
          "internalType": "address",
          "name": "_to",
          "type": "address"
        },
        {
          "indexed": true,
          "internalType": "uint256",
          "name": "_amount",
          "type": "uint256"
        }
      ],
      "name": "Transfer",
      "type": "event"
    },
    {
      "inputs": [
        {
          "internalType": "address",
          "name": "",
          "type": "address"
        }
      ],
      "name": "_balances",
      "outputs": [
        {
          "internalType": "uint256",
          "name": "",
          "type": "uint256"
        }
      ],
      "stateMutability": "view",
      "type": "function",
      "constant": true
    },
    {
      "inputs": [],
      "name": "_name",
      "outputs": [
        {
          "internalType": "string",
          "name": "",
          "type": "string"
        }
      ],
      "stateMutability": "view",
      "type": "function",
      "constant": true
    },
    {
      "inputs": [],
      "name": "_symbol",
      "outputs": [
        {
          "internalType": "string",
          "name": "",
          "type": "string"
        }
      ],
      "stateMutability": "view",
      "type": "function",
      "constant": true
    },
    {
      "inputs": [],
      "name": "_totalSupply",
      "outputs": [
        {
          "internalType": "uint256",
          "name": "",
          "type": "uint256"
        }
      ],
      "stateMutability": "view",
      "type": "function",
      "constant": true
    },
    {
      "inputs": [
        {
          "internalType": "address",
          "name": "to",
          "type": "address"
        },
        {
          "internalType": "uint256",
          "name": "amount",
          "type": "uint256"
        }
      ],
      "name": "transfer",
      "outputs": [
        {
          "internalType": "bool",
          "name": "",
          "type": "bool"
        }
      ],
      "stateMutability": "nonpayable",
      "type": "function"
    },
    {
      "inputs": [
        {
          "internalType": "address",
          "name": "sender",
          "type": "address"
        },
        {
          "internalType": "address",
          "name": "recipient",
          "type": "address"
        },
        {
          "internalType": "uint256",
          "name": "amount",
          "type": "uint256"
        }
      ],
      "name": "_transfer",
      "outputs": [],
      "stateMutability": "nonpayable",
      "type": "function"
    }
  ],
  "bytecode": "0x60806040523480156200001157600080fd5b5060405162000cb838038062000cb88339818101604052810190620000379190620001ec565b6040518060400160405280600c81526020017f44696775277320546f6b656e0000000000000000000000000000000000000000815250600290805190602001906200008492919062000125565b506040518060400160405280600481526020017f446967750000000000000000000000000000000000000000000000000000000081525060039080519060200190620000d292919062000125565b508060008190555080600160003373ffffffffffffffffffffffffffffffffffffffff1673ffffffffffffffffffffffffffffffffffffffff1681526020019081526020016000208190555050620002a1565b828054620001339062000222565b90600052602060002090601f016020900481019282620001575760008555620001a3565b82601f106200017257805160ff1916838001178555620001a3565b82800160010185558215620001a3579182015b82811115620001a257825182559160200191906001019062000185565b5b509050620001b29190620001b6565b5090565b5b80821115620001d1576000816000905550600101620001b7565b5090565b600081519050620001e68162000287565b92915050565b600060208284031215620001ff57600080fd5b60006200020f84828501620001d5565b91505092915050565b6000819050919050565b600060028204905060018216806200023b57607f821691505b6020821081141562000252576200025162000258565b5b50919050565b7f4e487b7100000000000000000000000000000000000000000000000000000000600052602260045260246000fd5b620002928162000218565b81146200029e57600080fd5b50565b610a0780620002b16000396000f3fe608060405234801561001057600080fd5b50600436106100625760003560e01c806330e0789e146100675780633eaaf86b146100835780636ebcf607146100a1578063a9059cbb146100d1578063b09f126614610101578063d28d88521461011f575b600080fd5b610081600480360381019061007c9190610587565b61013d565b005b61008b6103e3565b60405161009891906107c6565b60405180910390f35b6100bb60048036038101906100b6919061055e565b6103e9565b6040516100c891906107c6565b60405180910390f35b6100eb60048036038101906100e691906105d6565b610401565b6040516100f89190610729565b60405180910390f35b610109610418565b6040516101169190610744565b60405180910390f35b6101276104a6565b6040516101349190610744565b60405180910390f35b600073ffffffffffffffffffffffffffffffffffffffff168373ffffffffffffffffffffffffffffffffffffffff1614156101ad576040517f08c379a00000000000000000000000000000000000000000000000000000000081526004016101a4906107a6565b60405180910390fd5b600073ffffffffffffffffffffffffffffffffffffffff168273ffffffffffffffffffffffffffffffffffffffff16141561021d576040517f08c379a000000000000000000000000000000000000000000000000000000000815260040161021490610766565b60405180910390fd5b80600160008573ffffffffffffffffffffffffffffffffffffffff1673ffffffffffffffffffffffffffffffffffffffff16815260200190815260200160002054101561029f576040517f08c379a000000000000000000000000000000000000000000000000000000000815260040161029690610786565b60405180910390fd5b80600160008573ffffffffffffffffffffffffffffffffffffffff1673ffffffffffffffffffffffffffffffffffffffff168152602001908152602001600020546102ea9190610853565b600160008573ffffffffffffffffffffffffffffffffffffffff1673ffffffffffffffffffffffffffffffffffffffff1681526020019081526020016000208190555080600160008473ffffffffffffffffffffffffffffffffffffffff1673ffffffffffffffffffffffffffffffffffffffff168152602001908152602001600020600082825461037c91906107fd565b92505081905550808273ffffffffffffffffffffffffffffffffffffffff168473ffffffffffffffffffffffffffffffffffffffff167fddf252ad1be2c89b69c2b068fc378daa952ba7f163c4a11628f55a4df523b3ef60405160405180910390a4505050565b60005481565b60016020528060005260406000206000915090505481565b600061040e33848461013d565b6001905092915050565b6003805461042590610902565b80601f016020809104026020016040519081016040528092919081815260200182805461045190610902565b801561049e5780601f106104735761010080835404028352916020019161049e565b820191906000526020600020905b81548152906001019060200180831161048157829003601f168201915b505050505081565b600280546104b390610902565b80601f01602080910402602001604051908101604052809291908181526020018280546104df90610902565b801561052c5780601f106105015761010080835404028352916020019161052c565b820191906000526020600020905b81548152906001019060200180831161050f57829003601f168201915b505050505081565b600081359050610543816109a3565b92915050565b600081359050610558816109ba565b92915050565b60006020828403121561057057600080fd5b600061057e84828501610534565b91505092915050565b60008060006060848603121561059c57600080fd5b60006105aa86828701610534565b93505060206105bb86828701610534565b92505060406105cc86828701610549565b9150509250925092565b600080604083850312156105e957600080fd5b60006105f785828601610534565b925050602061060885828601610549565b9150509250929050565b61061b81610899565b82525050565b600061062c826107e1565b61063681856107ec565b93506106468185602086016108cf565b61064f81610992565b840191505092915050565b6000610667601b836107ec565b91507f5472616e736665726420746f2061207a65726f206163636f756e7400000000006000830152602082019050919050565b60006106a7601d836107ec565b91507f416d6f756e7420657863656564732062616c616e636520616d6f756e740000006000830152602082019050919050565b60006106e76016836107ec565b91507f53656e742066726f6d207a65726f206163636f756e74000000000000000000006000830152602082019050919050565b610723816108c5565b82525050565b600060208201905061073e6000830184610612565b92915050565b6000602082019050818103600083015261075e8184610621565b905092915050565b6000602082019050818103600083015261077f8161065a565b9050919050565b6000602082019050818103600083015261079f8161069a565b9050919050565b600060208201905081810360008301526107bf816106da565b9050919050565b60006020820190506107db600083018461071a565b92915050565b600081519050919050565b600082825260208201905092915050565b6000610808826108c5565b9150610813836108c5565b9250827fffffffffffffffffffffffffffffffffffffffffffffffffffffffffffffffff0382111561084857610847610934565b5b828201905092915050565b600061085e826108c5565b9150610869836108c5565b92508282101561087c5761087b610934565b5b828203905092915050565b6000610892826108a5565b9050919050565b60008115159050919050565b600073ffffffffffffffffffffffffffffffffffffffff82169050919050565b6000819050919050565b60005b838110156108ed5780820151818401526020810190506108d2565b838111156108fc576000848401525b50505050565b6000600282049050600182168061091a57607f821691505b6020821081141561092e5761092d610963565b5b50919050565b7f4e487b7100000000000000000000000000000000000000000000000000000000600052601160045260246000fd5b7f4e487b7100000000000000000000000000000000000000000000000000000000600052602260045260246000fd5b6000601f19601f8301169050919050565b6109ac81610887565b81146109b757600080fd5b50565b6109c3816108c5565b81146109ce57600080fd5b5056fea2646970667358221220ff49074dc02986b6818d26154e3ec27709eca1666bd9c023e105c684fef033dc64736f6c63430008000033",
  "immutableReferences": {},
  "source": "pragma solidity >=0.4.22 <0.9.0;\n\ncontract Token{\n  uint256 public _totalSupply;\n  mapping(address => uint256) public _balances;\n  string public _name;\n  string public _symbol;\n\n  event Transfer(\n\t  address  indexed _from,\n\t  address indexed  _to,\n\t  uint256 indexed _amount\n  );\n \n  constructor(uint256 initalSupply) public{\n\t  _name = \"Digu's Token\";\n\t  _symbol = \"Digu\";\n\t  _totalSupply = initalSupply;\n\t  _balances[msg.sender] = initalSupply;\n  }\n\n  function transfer(address to,uint256 amount) public returns (bool){\n\t  _transfer(msg.sender,to,amount);\n\t  return true;\n  }\n\n\tfunction _transfer(address sender,address recipient,uint256 amount) public{\n\t\trequire(sender != address(0),\"Sent from zero account\");\n\t\trequire(recipient != address(0),\"Transferd to a zero account\");\n\t\trequire(_balances[sender] >= amount,\"Amount exceeds balance amount\");\n\t\t_balances[sender] = _balances[sender]-amount;\n\t\t_balances[recipient] += amount;\n\t   emit Transfer(sender,recipient,amount);\t\n\t}\n}\n",
  "sourcePath": "/home/diganta/projects/My-Token/contracts/Token.sol",
  "compiler": {
    "name": "solc",
    "version": "0.8.0+commit.c7dfd78e.Emscripten.clang"
  },
  "schemaVersion": "3.4.3",
  "updatedAt": "2021-11-05T19:04:46.015Z",
  "networkType": "ethereum",
  "devdoc": {
    "kind": "dev",
    "methods": {},
    "version": 1
  },
  "userdoc": {
    "kind": "user",
    "methods": {},
    "version": 1
  }
}